S00F000041546D656761382E73726563AE
S11300001AC02CC02BC02AC029C028C027C026C0B3
S113001025C024C023C022C021C020C01FC01EC0D0
S11300201DC01CC01BC089C08CC08DC08EC091C0B7
S113003092C095C098C011241FBECFE5D4E0DEBFA6
S1130040CDBF10E0A0E6B0E0E6E8F1E002C0059024
S11300500D92A236B107D9F702D093C0D1CF889AB6
S113006080E056D08115924010F0909AF9CF909884
S1130070F7CF96B1987F96B98031B9F038F48430CF
S113008071F0883071F08230F1F407C0803499F057
S11300908038A9F08032B9F40AC0309A0895319AB0
S11300A0089586B1836086B90895329A089586B119
S11300B0856086B9089586B1866086B9089586B14B
S11300C0876086B9089586B1887F86B9089597B107
S11300D09F7397B93E9A811104C087B18F7387B912
S11300E00895813011F43E9A0895833021F487B144
S11300F0806C87B908953E9A0895CF93C62F1092C5
S11301006000379AB6DF8C2FE2DF3D98CF910895D7
S1130110CF93C82F80916000813019F461E080E8AA
S1130120ECDF87B1807F87B98C2F90E08830910510
S1130130F0F4FC01ED5EFF4F099487B1807F87B92D
S113014019C0389A17C0399A15C087B1836087B926
S113015011C03A9A0FC087B1856087B90BC087B1C7
S1130160866087B907C087B1876087B903C087B144
S1130170807F87B9369A349BFECF84B195B1CF91F5
S10901800895F894FFCF7E
S1050186010072
S9030000FC
