S00F000041546D656761382E73726563AE
S11300001AC021C020C01FC01EC01DC01CC01BC000
S11300101AC019C018C017C016C015C014C013C028
S113002012C011C010C075C078C079C07AC07DC03C
S11300307EC081C084C011241FBECFE5D4E0DEBFE2
S1130040CDBF02D089C0DCCF889A61E080E84DD072
S113005080E054D08115924010F0909AF9CF909896
S1130060F7CF96B1987F96B98031B9F038F48430DF
S113007071F0883071F08230F1F407C0803499F067
S11300808038A9F08032B9F40AC0309A0895319AC0
S1130090089586B1836086B90895329A089586B129
S11300A0856086B9089586B1866086B9089586B15B
S11300B0876086B9089586B1887F86B9089597B117
S11300C09F7397B93E9A811104C087B18F7387B922
S11300D00895813011F43E9A0895833021F487B154
S11300E0806C87B908953E9A0895CF93C62F379AA6
S11300F0B8DF8C2FE4DF3D98CF91089597B1907FBE
S113010097B990E088309105F0F4FC01ED5EFF4F63
S1130110099487B1807F87B919C0389A17C0399A72
S113012015C087B1836087B911C03A9A0FC087B1EF
S1130130856087B90BC087B1866087B907C087B16E
S1130140876087B903C087B1807F87B9369A349BAB
S10F0150FECF84B195B10895F894FFCF60
S9030000FC
