S0100000415474696E7934342E7372656353
S113000018C02AC029C028C027C026C025C024C0C3
S113001023C022C021C020C01FC01EC01DC01CC0E0
S11300201BC08EC091C092C093C096C097C09AC0A6
S11300309DC011241FBECFE5D1E0DEBFCDBF10E0CF
S1130040A0E6B0E0E8E8F1E002C005900D92A23627
S1130050B107D9F702D096C0D3CFBA9A81E05AD06B
S11300608115924010F0C29AF9CFC298F7CF96B199
S1130070987F96B98830C9F038F4823091F0843092
S113008091F0811124C00BC08032A9F018F48031A2
S113009081F01DC0803499F08038A9F018C0309ADE
S11300A00895309A0895319A089586B1836086B987
S11300B00895329A089586B1856086B9089586B107
S11300C0866086B9089586B1876086B9089586B139
S11300D0876086B908958B3021F487B18F7387B90F
S11300E008958A3019F43F983E9A08958C3019F493
S11300F03F9A3E98089587B18F7387B90895CF9337
S1130100C62F10926000379AB2DF8C2FE4DF1C9860
S1130110CF910895CF93C82F80916000813019F456
S11301206BE080E8ECDF87B1807C87B9389A8C2F4C
S113013090E088309105F0F4FC01EF5EFF4F0994E4
S113014087B1807C87B917C0389A15C0399A13C013
S113015087B1836087B90FC03A9A0DC087B18560B3
S113016087B909C087B1866087B905C087B1876040
S113017087B901C0389A369A349BFECF84B195B1C1
S10B0180CF910895F894FFCF1C
S1050188010070
S9030000FC
