:1000000021C028C027C026C025C024C023C022C0CC
:1000100021C020C01FC01EC01DC01CC01BC01AC0F4
:1000200019C018C017C016C015C014C013C012C024
:1000300011C010C0A5C0AAC0AFC0B4C0B9C0BEC076
:10004000C3C0C8C011241FBECFEFD2E0DEBFCDBFFA
:1000500002D0D8C0D5CF509A61E080E873D080E05C
:1000600082D08115924010F0589AF9CF5898F7CF66
:10007000EAE7F0E09081987F9083803109F138F4CD
:10008000843091F08830B1F0823091F507C080342F
:1000900019F1803839F1803259F518C0EAE7F0E0FB
:1000A0008081816080830895EAE7F0E0808182604A
:1000B00080830895EAE7F0E080818360808308957B
:1000C000EAE7F0E08081846080830895EAE7F0E069
:1000D0008081856080830895EAE7F0E08081866012
:1000E00080830895EAE7F0E0808187608083089547
:1000F000EAE7F0E08081887F80830895ECE7F0E014
:1001000090819F739083908190649083811104C04B
:1001100080818F7380830895813031F4ECE7F0E0C3
:100120008081806480830895833031F4ECE7F0E0CF
:100130008081806C80830895ECE7F0E080818064AA
:1001400080830895CF93C62FEAE7F0E0908190680E
:1001500090838EDF8C2FD2DFECE7F0E080818F7D03
:100160008083CF910895ECE7F0E09081907F9083B9
:1001700090E088309105A0F5FC01E65EFF4F099400
:10018000ECE7F0E08081807F80832FC0ECE7F0E037
:1001900080818160808329C0ECE7F0E0808182600B
:1001A000808323C0ECE7F0E08081836080831DC002
:1001B000ECE7F0E080818460808317C0ECE7F0E03A
:1001C00080818560808311C0ECE7F0E080818660EB
:1001D00080830BC0ECE7F0E080818760808305C0FE
:1001E000ECE7F0E08081807F8083EAE7F0E08081C7
:1001F00080648083808184FFFDCF8091780090911E
:0802000079000895F894FFCF86
:00000001FF
