S010000041746D65676133322E7372656360
S11300000C9432000C943C000C943C000C943C0086
S11300100C943C000C943C000C943C000C943C006C
S11300200C943C000C943C000C943C000C943C005C
S11300300C943C000C943C000C943C000C943C004C
S11300400C943C000C943C000C943C000C943C003C
S11300500C943C00A800AC00AE00B000B400B600A4
S1130060BA00BE0011241FBECFE5D8E0DEBFCDBF6D
S11300700E943E000C94D1000C940000889A61E028
S113008080E80E94910080E00E949C0081159240CB
S113009010F0909AF8CF9098F6CF96B1987F96B9D1
S11300A08031B9F038F4843071F0883071F08230E6
S11300B0F1F407C0803499F08038A9F08032B9F4A3
S11300C00AC0309A0895319A089586B1836086B93A
S11300D00895329A089586B1856086B9089586B1E7
S11300E0866086B9089586B1876086B9089586B119
S11300F0887F86B9089597B19F7397B93E9A811105
S113010004C087B18F7387B90895813011F43E9A82
S11301100895833021F487B1806C87B908953E9A9D
S11301200895CF93C62F379A0E944D008C2F0E94BA
S11301307B003D98CF91089597B1907E97B990E058
S113014088309105F8F4FC01E65DFF4F0C94CB0078
S113015087B1807E87B919C0389A17C0399A15C0FB
S113016087B1836087B911C03A9A0FC087B185609F
S113017087B90BC087B1866087B907C087B187602C
S113018087B903C087B1807E87B9369A349BFECF86
S113019084B195B10895EE0FFF1F0590F491E02D01
S10901A00994F894FFCF5E
S9030000FC
