:100000000C943C000C9446000C9446000C94460062
:100010000C9446000C9446000C9446000C94460048
:100020000C9446000C9446000C9446000C94460038
:100030000C9446000C9446000C9446000C94460028
:100040000C9446000C9446000C9446000C94460018
:100050000C9446000C9446000C9446000C94460008
:100060000C9446000C944600E200E800EE00F40018
:10007000FA00000106010C0111241FBECFEFD8E0E9
:10008000DEBFCDBF0E9448000C942A010C940000F2
:10009000509A61E080E80E94C10080E00E94D40094
:1000A0008115924010F0589AF8CF5898F6CFEAE7A9
:1000B000F0E09081987F9083803109F138F48430AA
:1000C00091F08830B1F0823091F507C0803419F199
:1000D000803839F1803259F518C0EAE7F0E08081C4
:1000E000816080830895EAE7F0E080818260808308
:1000F0000895EAE7F0E08081836080830895EAE76D
:10010000F0E08081846080830895EAE7F0E08081F8
:10011000856080830895EAE7F0E0808186608083CF
:100120000895EAE7F0E08081876080830895EAE738
:10013000F0E08081887F80830895ECE7F0E0908193
:100140009F739083908190649083811104C080811B
:100150008F7380830895813031F4ECE7F0E0808183
:10016000806480830895833031F4ECE7F0E080818F
:10017000806C80830895ECE7F0E080818064808368
:100180000895CF93C62FEAE7F0E0908190689083BE
:100190000E9457008C2F0E949D00ECE7F0E08081C8
:1001A0008F7D8083CF910895ECE7F0E09081907F80
:1001B000908390E088309105A8F5FC01EC5CFF4F3E
:1001C0000C942401ECE7F0E08081807F80832FC0D5
:1001D000ECE7F0E080818160808329C0ECE7F0E00B
:1001E00080818260808323C0ECE7F0E080818360BF
:1001F00080831DC0ECE7F0E080818460808317C0BD
:10020000ECE7F0E080818560808311C0ECE7F0E0EE
:100210008081866080830BC0ECE7F0E0808187609E
:10022000808305C0ECE7F0E08081807F8083EAE78F
:10023000F0E0808180648083808184FFFDCF8091A5
:100240007800909179000895EE0FFF1F0590F491CA
:08025000E02D0994F894FFCFA2
:00000001FF
